{
  "contractName": "Election",
  "abi": [
    {
      "anonymous": false,
      "inputs": [
        {
          "indexed": false,
          "internalType": "uint256",
          "name": "id",
          "type": "uint256"
        },
        {
          "indexed": false,
          "internalType": "string",
          "name": "name",
          "type": "string"
        },
        {
          "indexed": false,
          "internalType": "string",
          "name": "party",
          "type": "string"
        }
      ],
      "name": "candidateRegistered",
      "type": "event"
    },
    {
      "anonymous": false,
      "inputs": [
        {
          "indexed": false,
          "internalType": "uint256",
          "name": "candidateId",
          "type": "uint256"
        },
        {
          "indexed": false,
          "internalType": "string",
          "name": "msg",
          "type": "string"
        }
      ],
      "name": "voteRegistered",
      "type": "event"
    },
    {
      "anonymous": false,
      "inputs": [
        {
          "indexed": false,
          "internalType": "address",
          "name": "_address",
          "type": "address"
        }
      ],
      "name": "voterRegistered",
      "type": "event"
    },
    {
      "inputs": [
        {
          "internalType": "string",
          "name": "_name",
          "type": "string"
        },
        {
          "internalType": "string",
          "name": "_party",
          "type": "string"
        }
      ],
      "name": "candidateRegistration",
      "outputs": [],
      "stateMutability": "nonpayable",
      "type": "function"
    },
    {
      "inputs": [],
      "name": "getCandidates",
      "outputs": [
        {
          "components": [
            {
              "internalType": "string",
              "name": "name",
              "type": "string"
            },
            {
              "internalType": "uint256",
              "name": "id",
              "type": "uint256"
            },
            {
              "internalType": "string",
              "name": "party",
              "type": "string"
            },
            {
              "internalType": "address",
              "name": "_address",
              "type": "address"
            },
            {
              "internalType": "uint256",
              "name": "numOfVotes",
              "type": "uint256"
            }
          ],
          "internalType": "struct Election.Candidate[]",
          "name": "",
          "type": "tuple[]"
        }
      ],
      "stateMutability": "view",
      "type": "function",
      "constant": true
    },
    {
      "inputs": [],
      "name": "voterRegistration",
      "outputs": [],
      "stateMutability": "nonpayable",
      "type": "function"
    },
    {
      "inputs": [
        {
          "internalType": "uint256",
          "name": "_candidateId",
          "type": "uint256"
        }
      ],
      "name": "Vote",
      "outputs": [],
      "stateMutability": "nonpayable",
      "type": "function"
    },
    {
      "inputs": [],
      "name": "declareWinner",
      "outputs": [
        {
          "internalType": "string",
          "name": "_name",
          "type": "string"
        },
        {
          "internalType": "string",
          "name": "_party",
          "type": "string"
        },
        {
          "internalType": "address",
          "name": "_address",
          "type": "address"
        }
      ],
      "stateMutability": "view",
      "type": "function",
      "constant": true
    }
  ],
  "bytecode": "0x608060405234801561001057600080fd5b50611799806100206000396000f3fe608060405234801561001057600080fd5b50600436106100575760003560e01c806306a49fce1461005c57806314034bd21461007a57806341a349951461009a5780636f6379e3146100b6578063dcd6a5cd146100c0575b600080fd5b6100646100dc565b60405161007191906110ca565b60405180910390f35b6100826102c9565b60405161009193929190611145565b60405180910390f35b6100b460048036038101906100af91906112d3565b61070f565b005b6100be6109b6565b005b6100da60048036038101906100d59190611377565b610b9b565b005b60606001805480602002602001604051908101604052809291908181526020016000905b828210156102c057838290600052602060002090600502016040518060a0016040529081600082018054610133906113d3565b80601f016020809104026020016040519081016040528092919081815260200182805461015f906113d3565b80156101ac5780601f10610181576101008083540402835291602001916101ac565b820191906000526020600020905b81548152906001019060200180831161018f57829003601f168201915b50505050508152602001600182015481526020016002820180546101cf906113d3565b80601f01602080910402602001604051908101604052809291908181526020018280546101fb906113d3565b80156102485780601f1061021d57610100808354040283529160200191610248565b820191906000526020600020905b81548152906001019060200180831161022b57829003601f168201915b505050505081526020016003820160009054906101000a900473ffffffffffffffffffffffffffffffffffffffff1673ffffffffffffffffffffffffffffffffffffffff1673ffffffffffffffffffffffffffffffffffffffff16815260200160048201548152505081526020019060010190610100565b50505050905090565b60608060008060016000815481106102e4576102e3611405565b5b90600052602060002090600502016004015490506000600160008154811061030f5761030e611405565b5b90600052602060002090600502016040518060a0016040529081600082018054610338906113d3565b80601f0160208091040260200160405190810160405280929190818152602001828054610364906113d3565b80156103b15780601f10610386576101008083540402835291602001916103b1565b820191906000526020600020905b81548152906001019060200180831161039457829003601f168201915b50505050508152602001600182015481526020016002820180546103d4906113d3565b80601f0160208091040260200160405190810160405280929190818152602001828054610400906113d3565b801561044d5780601f106104225761010080835404028352916020019161044d565b820191906000526020600020905b81548152906001019060200180831161043057829003601f168201915b505050505081526020016003820160009054906101000a900473ffffffffffffffffffffffffffffffffffffffff1673ffffffffffffffffffffffffffffffffffffffff1673ffffffffffffffffffffffffffffffffffffffff16815260200160048201548152505090506000600190505b6001805490508110156106f25782600182815481106104e1576104e0611405565b5b90600052602060002090600502016004015411156106df576001818154811061050d5761050c611405565b5b90600052602060002090600502016004015492506001818154811061053557610534611405565b5b90600052602060002090600502016040518060a001604052908160008201805461055e906113d3565b80601f016020809104026020016040519081016040528092919081815260200182805461058a906113d3565b80156105d75780601f106105ac576101008083540402835291602001916105d7565b820191906000526020600020905b8154815290600101906020018083116105ba57829003601f168201915b50505050508152602001600182015481526020016002820180546105fa906113d3565b80601f0160208091040260200160405190810160405280929190818152602001828054610626906113d3565b80156106735780601f1061064857610100808354040283529160200191610673565b820191906000526020600020905b81548152906001019060200180831161065657829003601f168201915b505050505081526020016003820160009054906101000a900473ffffffffffffffffffffffffffffffffffffffff1673ffffffffffffffffffffffffffffffffffffffff1673ffffffffffffffffffffffffffffffffffffffff16815260200160048201548152505091505b80806106ea90611463565b9150506104bf565b508060000151816040015182606001519450945094505050909192565b3360001515600360008373ffffffffffffffffffffffffffffffffffffffff1673ffffffffffffffffffffffffffffffffffffffff16815260200190815260200160002060009054906101000a900460ff1615151480156107c0575060001515600460008373ffffffffffffffffffffffffffffffffffffffff1673ffffffffffffffffffffffffffffffffffffffff16815260200190815260200160002060009054906101000a900460ff161515145b6107ff576040517f08c379a00000000000000000000000000000000000000000000000000000000081526004016107f6906114f8565b60405180910390fd5b60006040518060a0016040528085815260200160016000808282546108249190611518565b92505081905581526020018481526020013373ffffffffffffffffffffffffffffffffffffffff16815260200160008152509050600181908060018154018082558091505060019003906000526020600020906005020160009091909190915060008201518160000190805190602001906108a0929190610df5565b506020820151816001015560408201518160020190805190602001906108c7929190610df5565b5060608201518160030160006101000a81548173ffffffffffffffffffffffffffffffffffffffff021916908373ffffffffffffffffffffffffffffffffffffffff1602179055506080820151816004015550506001600360003373ffffffffffffffffffffffffffffffffffffffff1673ffffffffffffffffffffffffffffffffffffffff16815260200190815260200160002060006101000a81548160ff0219169083151502179055507fb4c4729e390e3115fe2895a6e0dc0813024fb2bbdc607e37d5f4e2dc5930019560005485856040516109a89392919061157d565b60405180910390a150505050565b3360001515600360008373ffffffffffffffffffffffffffffffffffffffff1673ffffffffffffffffffffffffffffffffffffffff16815260200190815260200160002060009054906101000a900460ff161515148015610a67575060001515600460008373ffffffffffffffffffffffffffffffffffffffff1673ffffffffffffffffffffffffffffffffffffffff16815260200190815260200160002060009054906101000a900460ff161515145b610aa6576040517f08c379a0000000000000000000000000000000000000000000000000000000008152600401610a9d906114f8565b60405180910390fd5b6001600460003373ffffffffffffffffffffffffffffffffffffffff1673ffffffffffffffffffffffffffffffffffffffff16815260200190815260200160002060006101000a81548160ff0219169083151502179055506002339080600181540180825580915050600190039060005260206000200160009091909190916101000a81548173ffffffffffffffffffffffffffffffffffffffff021916908373ffffffffffffffffffffffffffffffffffffffff1602179055507f387e3d20b36ce3254acb134e913909d19062c2c475ffa1734569bc795869da1033604051610b9091906115c2565b60405180910390a150565b60011515600460003373ffffffffffffffffffffffffffffffffffffffff1673ffffffffffffffffffffffffffffffffffffffff16815260200190815260200160002060009054906101000a900460ff161515148015610c4b575060001515600360003373ffffffffffffffffffffffffffffffffffffffff1673ffffffffffffffffffffffffffffffffffffffff16815260200190815260200160002060009054906101000a900460ff161515145b610c8a576040517f08c379a0000000000000000000000000000000000000000000000000000000008152600401610c8190611629565b60405180910390fd5b60001515600560003373ffffffffffffffffffffffffffffffffffffffff1673ffffffffffffffffffffffffffffffffffffffff16815260200190815260200160002060009054906101000a900460ff16151514610d1d576040517f08c379a0000000000000000000000000000000000000000000000000000000008152600401610d1490611695565b60405180910390fd5b60018082610d2b91906116b5565b81548110610d3c57610d3b611405565b5b90600052602060002090600502016004016000815480929190610d5e90611463565b91905055506001600560003373ffffffffffffffffffffffffffffffffffffffff1673ffffffffffffffffffffffffffffffffffffffff16815260200190815260200160002060006101000a81548160ff0219169083151502179055507f7cb434d1182f82c142c912d4e33d1fc8309a324628533329a23bf27ed3e7d28481604051610dea9190611735565b60405180910390a150565b828054610e01906113d3565b90600052602060002090601f016020900481019282610e235760008555610e6a565b82601f10610e3c57805160ff1916838001178555610e6a565b82800160010185558215610e6a579182015b82811115610e69578251825591602001919060010190610e4e565b5b509050610e779190610e7b565b5090565b5b80821115610e94576000816000905550600101610e7c565b5090565b600081519050919050565b600082825260208201905092915050565b6000819050602082019050919050565b600081519050919050565b600082825260208201905092915050565b60005b83811015610efe578082015181840152602081019050610ee3565b83811115610f0d576000848401525b50505050565b6000601f19601f8301169050919050565b6000610f2f82610ec4565b610f398185610ecf565b9350610f49818560208601610ee0565b610f5281610f13565b840191505092915050565b6000819050919050565b610f7081610f5d565b82525050565b600073ffffffffffffffffffffffffffffffffffffffff82169050919050565b6000610fa182610f76565b9050919050565b610fb181610f96565b82525050565b600060a0830160008301518482036000860152610fd48282610f24565b9150506020830151610fe96020860182610f67565b50604083015184820360408601526110018282610f24565b91505060608301516110166060860182610fa8565b5060808301516110296080860182610f67565b508091505092915050565b60006110408383610fb7565b905092915050565b6000602082019050919050565b600061106082610e98565b61106a8185610ea3565b93508360208202850161107c85610eb4565b8060005b858110156110b857848403895281516110998582611034565b94506110a483611048565b925060208a01995050600181019050611080565b50829750879550505050505092915050565b600060208201905081810360008301526110e48184611055565b905092915050565b600082825260208201905092915050565b600061110882610ec4565b61111281856110ec565b9350611122818560208601610ee0565b61112b81610f13565b840191505092915050565b61113f81610f96565b82525050565b6000606082019050818103600083015261115f81866110fd565b9050818103602083015261117381856110fd565b90506111826040830184611136565b949350505050565b6000604051905090565b600080fd5b600080fd5b600080fd5b600080fd5b7f4e487b7100000000000000000000000000000000000000000000000000000000600052604160045260246000fd5b6111e082610f13565b810181811067ffffffffffffffff821117156111ff576111fe6111a8565b5b80604052505050565b600061121261118a565b905061121e82826111d7565b919050565b600067ffffffffffffffff82111561123e5761123d6111a8565b5b61124782610f13565b9050602081019050919050565b82818337600083830152505050565b600061127661127184611223565b611208565b905082815260208101848484011115611292576112916111a3565b5b61129d848285611254565b509392505050565b600082601f8301126112ba576112b961119e565b5b81356112ca848260208601611263565b91505092915050565b600080604083850312156112ea576112e9611194565b5b600083013567ffffffffffffffff81111561130857611307611199565b5b611314858286016112a5565b925050602083013567ffffffffffffffff81111561133557611334611199565b5b611341858286016112a5565b9150509250929050565b61135481610f5d565b811461135f57600080fd5b50565b6000813590506113718161134b565b92915050565b60006020828403121561138d5761138c611194565b5b600061139b84828501611362565b91505092915050565b7f4e487b7100000000000000000000000000000000000000000000000000000000600052602260045260246000fd5b600060028204905060018216806113eb57607f821691505b602082108114156113ff576113fe6113a4565b5b50919050565b7f4e487b7100000000000000000000000000000000000000000000000000000000600052603260045260246000fd5b7f4e487b7100000000000000000000000000000000000000000000000000000000600052601160045260246000fd5b600061146e82610f5d565b91507fffffffffffffffffffffffffffffffffffffffffffffffffffffffffffffffff8214156114a1576114a0611434565b5b600182019050919050565b7f596f752061726520616c72656164792072656769737465726564000000000000600082015250565b60006114e2601a836110ec565b91506114ed826114ac565b602082019050919050565b60006020820190508181036000830152611511816114d5565b9050919050565b600061152382610f5d565b915061152e83610f5d565b9250827fffffffffffffffffffffffffffffffffffffffffffffffffffffffffffffffff0382111561156357611562611434565b5b828201905092915050565b61157781610f5d565b82525050565b6000606082019050611592600083018661156e565b81810360208301526115a481856110fd565b905081810360408301526115b881846110fd565b9050949350505050565b60006020820190506115d76000830184611136565b92915050565b7f596f7520617265206e6f7420612072656769737465726420766f746572000000600082015250565b6000611613601d836110ec565b915061161e826115dd565b602082019050919050565b6000602082019050818103600083015261164281611606565b9050919050565b7f596f752063616e20766f7465206f6e6c79206f6e636500000000000000000000600082015250565b600061167f6016836110ec565b915061168a82611649565b602082019050919050565b600060208201905081810360008301526116ae81611672565b9050919050565b60006116c082610f5d565b91506116cb83610f5d565b9250828210156116de576116dd611434565b5b828203905092915050565b7f596f757220766f746520686173206265656e2072656769737465726564000000600082015250565b600061171f601d836110ec565b915061172a826116e9565b602082019050919050565b600060408201905061174a600083018461156e565b818103602083015261175b81611712565b90509291505056fea2646970667358221220bfb0d27309b7e9ca1626bedc0147419fc86dbe839dcf39b145d2945bc857a1e164736f6c63430008090033",
  "immutableReferences": {},
  "source": "pragma solidity ^0.8.0;\r\n\r\ncontract Election {\r\n    // State Variables\r\n    uint256 id;\r\n    Candidate[] private candidates;\r\n    address[] private voters;\r\n\r\n    struct Candidate {\r\n        string name;\r\n        uint256 id;\r\n        string party;\r\n        address _address;\r\n        uint256 numOfVotes;\r\n    }\r\n\r\n    // Mappings\r\n    mapping(address => bool) private isRegisteredCandidate;\r\n    mapping(address => bool) private isRegisteredVoter;\r\n    mapping(address => bool) private hasVoted;\r\n\r\n    // Events\r\n    event candidateRegistered(uint256 id, string name, string party);\r\n    event voterRegistered(address _address);\r\n    event voteRegistered(uint256 candidateId, string msg);\r\n\r\n    // It restricts the function for registered people.\r\n    modifier onlyUnregistered(address caller) {\r\n        require(\r\n            isRegisteredCandidate[caller] == false &&\r\n                isRegisteredVoter[caller] == false,\r\n            \"You are already registered\"\r\n        );\r\n        _;\r\n    }\r\n\r\n    // FUNCTIONS\r\n\r\n    // This function registers a new candidate.\r\n    function candidateRegistration(string memory _name, string memory _party)\r\n        public\r\n        onlyUnregistered(msg.sender)\r\n    {\r\n        Candidate memory cand = Candidate(\r\n            _name,\r\n            id += 1,\r\n            _party,\r\n            msg.sender,\r\n            0\r\n        );\r\n        candidates.push(cand);\r\n        isRegisteredCandidate[msg.sender] = true;\r\n        emit candidateRegistered(id, _name, _party);\r\n    }\r\n\r\n    // Function to get all the candidates.\r\n    function getCandidates() public view returns (Candidate[] memory) {\r\n        return candidates;\r\n    }\r\n\r\n    // This function resgisters a new voter.\r\n    function voterRegistration() public onlyUnregistered(msg.sender) {\r\n        isRegisteredVoter[msg.sender] = true;\r\n        voters.push(msg.sender);\r\n        emit voterRegistered(msg.sender);\r\n    }\r\n\r\n    // This function registers the vote from the voter for a particular candidate.\r\n    function Vote(uint256 _candidateId) public {\r\n        require(\r\n            isRegisteredVoter[msg.sender] == true &&\r\n                isRegisteredCandidate[msg.sender] == false,\r\n            \"You are not a registerd voter\"\r\n        );\r\n        require(hasVoted[msg.sender] == false, \"You can vote only once\");\r\n\r\n        candidates[_candidateId - 1].numOfVotes++;\r\n        hasVoted[msg.sender] = true;\r\n        emit voteRegistered(_candidateId, \"Your vote has been registered\");\r\n    }\r\n\r\n    // This function is called to declare the winner of the election.\r\n    function declareWinner()\r\n        external\r\n        view\r\n        returns (\r\n            string memory _name,\r\n            string memory _party,\r\n            address _address\r\n        )\r\n    {\r\n        uint256 maxVotes = candidates[0].numOfVotes;\r\n        Candidate memory winner = candidates[0];\r\n        for (uint256 i = 1; i < candidates.length; i++) {\r\n            if (candidates[i].numOfVotes > maxVotes) {\r\n                maxVotes = candidates[i].numOfVotes;\r\n                winner = candidates[i];\r\n            }\r\n        }\r\n        return (winner.name, winner.party, winner._address); // returns name, part and id of the winning candidate\r\n    }\r\n\r\n}\r\n",
  "sourcePath": "A:\\AnUrAG\\My projects\\Blockchain\\Election Dapp\\contracts\\Election.sol",
  "compiler": {
    "name": "solc",
    "version": "0.8.9+commit.e5eed63a.Emscripten.clang"
  },
  "schemaVersion": "3.4.3",
  "updatedAt": "2021-10-11T15:28:31.376Z",
  "networkType": "ethereum",
  "devdoc": {
    "kind": "dev",
    "methods": {},
    "version": 1
  },
  "userdoc": {
    "kind": "user",
    "methods": {},
    "version": 1
  }
}